S00F00004156525F4E52462E73726563E7
S11300000C942A000C943F000C943F000C943F0085
S11300100C943F000C943F000C943F000C943F0060
S11300200C943F000C943F000C943F000C943F0050
S11300300C943F000C943F000C943F000C943F0040
S11300400C943F000C943F000C943F000C943F0030
S11300500C943F0011241FBECFE5D4E0DEBFCDBF1A
S113006010E0A0E6B0E0EAE9F1E002C005900D92EC
S1130070A636B107D9F70E9441000C94CB000C942A
S11300800000CF93DF93CDB7DEB72A970FB6F8946D
S1130090DEBF0FBECDBF85E0E0E6F0E0DE011196E5
S11300A001900D928A95E1F78E010A5F1F4F85E05A
S11300B0F80111928A95E9F78FEF8ABB64E083E037
S11300C00E94AF0045E0BE016F5F7F4F80E10E9458
S11300D08E0045E0B80180E10E9471008E818BBBE7
S11300E0FFCFFF920F931F93CF93DF938B01F42ED7
S11300F0C4980E94C600FF2051F0E8010F0D111DA5
S11301008FEF0E94C6008993C017D107C9F7C49A1C
S1130110DF91CF911F910F91FF900895EF92FF927D
S11301200F931F93CF93DF938B01F42EC4988062B7
S11301300E94C600E82EFF2049F0E8010F0D111DB2
S113014089910E94C600C017D107D1F7C49A8E2D99
S1130150DF91CF911F910F91FF90EF90089521E0CF
S113016030E0A90102C0440F551F6A95E2F7942FAD
S1130170906A02C0220F331F8A95E2F7292B27BB0E
S113018088B3482B48BB83E58DB908958FB9779B15
S10D0190FECF8FB10895F894FFCF5D
S109019AFFFFFFFFFF0060
S9030000FC
