:100000000C942A000C9434000C9434000C943400AA
:100010000C9434000C9434000C9434000C94340090
:100020000C9434000C9434000C9434000C94340080
:100030000C9434000C9434000C9434000C94340070
:100040000C9434000C9434000C9434000C94340060
:100050000C94340011241FBECFE5D4E0DEBFCDBF29
:100060000E9436000C94C2000C940000CF93DF93E2
:1000700000D000D01F92CDB7DEB78E010F5F1F4FAB
:1000800085E0F80111928A95E9F78FEF8ABB0E940B
:100090008F0041E0B80180E00E94510089818BBB54
:1000A000FFCFFF920F931F93CF93DF938B01F42E1B
:1000B000C4980E94BD00FF2051F0E8010F0D111DF2
:1000C0008FEF0E94BD008993C017D107C9F7C49A6A
:1000D000DF91CF911F910F91FF900895EF92FF92C2
:1000E0000F931F93CF93DF938B01F42EC4988062FC
:1000F0000E94BD00E82EFF2049F0E8010F0D111D00
:1001000089910E94BD00C017D107D1F7C49A8E2DE6
:10011000DF91CF911F910F91FF90EF900895CF93B2
:10012000DF931F92CDB7DEB78AE0898364E083E076
:100130000E94A600C39841E0BE016F5F7F4F80E040
:100140000E946E000F90DF91CF91089521E030E082
:10015000A90102C0440F551F6A95E2F7942F906AD7
:1001600002C0220F331F8A95E2F7292B27BB88B3E1
:10017000482B48BB83E58DB908958FB9779BFECF97
:080180008FB10895F894FFCF40
:00000001FF
