S00F00004156525F4E52462E73726563E7
S11300000C942A000C9434000C9434000C943400A6
S11300100C9434000C9434000C9434000C9434008C
S11300200C9434000C9434000C9434000C9434007C
S11300300C9434000C9434000C9434000C9434006C
S11300400C9434000C9434000C9434000C9434005C
S11300500C94340011241FBECFE5D4E0DEBFCDBF25
S11300600E9436000C9445010C940000CF93DF935A
S11300701F92CDB7DEB719828FEF8ABB0E948E0024
S113008061E080E00E9418010E94A5000E94C60061
S11300900E940301882329F061E0CE0101960E94A9
S11300A0E50089818BBBF4CFFF920F931F93CF930D
S11300B0DF938B01F42EC4980E944001FF2051F07D
S11300C0E8010F0D111D8FEF0E9440018993C017A5
S11300D0D107C9F7C49ADF91CF911F910F91FF9077
S11300E00895FF920F931F93CF93DF938B01F42E08
S11300F0C49880620E944001FF2049F0E8010F0D7E
S1130100111D89910E944001C017D107D1F7C49AEB
S1130110DF91CF911F910F91FF900895CF93DF93BB
S11301201F92CDB7DEB788E0898364E083E00E9444
S11301302901C39841E0BE016F5F7F4F80E00E94B8
S113014071000F90DF91CF910895CF93DF931F92A9
S1130150CDB7DEB7198241E0BE016F5F7F4F80E00B
S11301600E94540089818260898341E0BE016F5FEF
S11301707F4F80E00E94710083EF91E00197F1F7D7
S113018000C000000F90DF91CF910895CF93DF93CB
S11301901F92CDB7DEB7198241E0BE016F5F7F4F7A
S11301A080E00E94540089818160898341E0BE011E
S11301B06F5F7F4F80E00E947100C39A8DE28A9541
S11301C0F1F70F90DF91CF910895FF920F931F9352
S11301D0CF93DF938C01F62EC49881E60E944001F0
S11301E0FF2051F0E8010F0D111D8FEF0E94400117
S11301F08993C017D107C9F7C49ADF91CF911F9192
S11302000F91FF900895CF93DF931F92CDB7DEB780
S1130210198241E0BE016F5F7F4F87E00E94540066
S1130220998181E096FF80E00F90DF91CF9108954E
S1130230CF93DF931F92CDB7DEB7698341E0BE0150
S11302406F5F7F4F8F5E0E9471000F90DF91CF919F
S1130250089521E030E0A90102C0440F551F6A95BA
S1130260E2F7942F906A02C0220F331F8A95E2F7B7
S1130270292B27BB88B3482B48BB83E58DB9089548
S11102808FB9779BFECF8FB10895F894FFCF0E
S9030000FC
