:100000000C942A000C9480000C9447000C94470038
:100010000C9447000C9447000C9447000C94470044
:100020000C9447000C9447000C9447000C94470034
:100030000C9447000C9447000C9447000C94470024
:100040000C9447000C9447000C9447000C94470014
:100050000C94470011241FBECFE5D4E0DEBFCDBF16
:1000600010E0A0E6B0E0E2E2F5E002C005900D92FB
:10007000A636B107D9F720E0A6E6B0E001C01D9290
:10008000A736B207E1F70E94B5000C948F020C94DA
:100090000000413069F4E82FF92F229181E090E0CF
:1000A00002C0880F991F6A95E2F7822B808308951A
:1000B000E82FF92F229181E090E002C0880F991F6C
:1000C0006A95E2F78095822380830895FC01413090
:1000D00059F4208181E090E002C0880F991F6A9551
:1000E000E2F7822B80830895908121E030E002C006
:1000F000220F331F6A95E2F7209529232083089564
:100100001F920F920FB60F9211242F933F934F938C
:100110005F936F937F938F939F93AF93BF93EF936F
:10012000FF930AC061E086E690E00E94F1010E9420
:100130006901809166008BBB0E940F028111F2CF92
:1001400092B380E2892782BBFF91EF91BF91AF917B
:100150009F918F917F916F915F914F913F912F91DF
:100160000F900FBE0F901F901895CF93DF93CDB7D0
:10017000DEB72A970FB6F894DEBF0FBECDBF85E07D
:10018000E0E6F0E0DE01119601900D928A95E1F72C
:1001900085E0E0E6F0E0DE01169601900D928A958A
:1001A000E1F78FEF8ABB81BB8A98B89AC098C09A52
:1001B000929A8BB780648BBF8FEC97E00197F1F731
:1001C00000C0000078940E947B010E9490010E9470
:1001D00063010E945D0145E0BE016F5F7F4F80E0DB
:1001E0000E94590265E0CE0106960E945D0261E020
:1001F00080E00E942B020E94B1010E94D20141E0E6
:1002000066E670E087E00E94230141E066E670E068
:1002100087E00E9440019FEF9BBB85B7806485BF4C
:1002200085B78F74806285BF889585B78F7B85BFC2
:100230001BBA2FEF30E782E0215030408040E1F7D9
:1002400000C00000E9CFFF920F931F93CF93DF937D
:100250008B01F42EC4980E948A02FF2051F0E8011D
:100260000F0D111D8FEF0E948A028993C017D107CD
:10027000C9F7C49ADF91CF911F910F91FF90089514
:10028000FF920F931F93CF93DF938B01F42EC498AB
:1002900080620E948A02FF2049F0E8010F0D111DC3
:1002A00089910E948A02C017D107D1F7C49ADF91C1
:1002B000CF911F910F91FF900895C49881EE0E94F5
:1002C0008A02C49A0895C49882EE0E948A02C49A4F
:1002D0000895CF93DF931F92CDB7DEB780E4898373
:1002E00041E0BE016F5F7F4F87E00E9440010F90A9
:1002F000DF91CF910895CF93DF931F92CDB7DEB7F3
:1003000088E389830E946302C39841E0BE016F5F66
:100310007F4F80E00E9440010F90DF91CF910895C0
:10032000CF93DF931F92CDB7DEB7198241E0BE01B4
:100330006F5F7F4F80E00E94230189818D7F8983D9
:1003400041E0BE016F5F7F4F80E00E94400183EF7C
:1003500091E00197F1F700C000000F90DF91CF917D
:100360000895CF93DF931F92CDB7DEB7198241E096
:10037000BE016F5F7F4F80E00E9423018981826010
:10038000898341E0BE016F5F7F4F80E00E944001A2
:1003900083EF91E00197F1F700C000000F90DF912B
:1003A000CF910895CF93DF931F92CDB7DEB7198217
:1003B00041E0BE016F5F7F4F80E00E942301898191
:1003C0008160898341E0BE016F5F7F4F80E00E94C2
:1003D0004001C39A8DE28A95F1F70F90DF91CF919A
:1003E0000895FF920F931F93CF93DF938C01F62E06
:1003F000C49881E60E948A02FF2051F0E8010F0DA7
:10040000111D8FEF0E948A028993C017D107C9F787
:10041000C49ADF91CF911F910F91FF900895CF93D0
:10042000DF931F92CDB7DEB7198241E0BE016F5F47
:100430007F4F87E00E9423018981282F269527700E
:1004400030E02630310514F0817001C081E00F905A
:10045000DF91CF9108951F93CF93DF931F92CDB774
:10046000DEB7182F698341E0BE016F5F7F4F81E1E6
:10047000810F0E94400141E0BE016F5F7F4F82E02B
:100480000E94230121E030E0C90102C0880F991FBA
:100490001A95E2F79981892B898341E0BE016F5F4C
:1004A0007F4F82E00E9440010F90DF91CF911F911A
:1004B0000895865F0E9440010895462FBC0180E1A7
:1004C0000E944001089541E063E088E390E00E94CB
:1004D000490041E064E088E390E00E94490041E087
:1004E00065E088E390E00E94490040E066E088E330
:1004F00090E00E94490041E067E088E390E00E94BC
:10050000490041E064E088E390E00E94660083E5F2
:100510008DB908958FB9779BFECF8FB10895F89468
:02052000FFCF0B
:060522002121212121002E
:00000001FF
