:100000000C942A000C9434000C9434000C943400AA
:100010000C9434000C9434000C9434000C94340090
:100020000C9434000C9434000C9434000C94340080
:100030000C9434000C9434000C9434000C94340070
:100040000C9434000C9434000C9434000C94340060
:100050000C94340011241FBECFE5D4E0DEBFCDBF29
:100060000E9436000C9460010C940000CF93DF9343
:1000700000D0CDB7DEB78AEA89831A828FEF8ABBB8
:100080000E94950061E080E00E9433010E94AC0074
:100090000E94CD0061E0CE0101960E94EC000E941A
:1000A000090141E0BE016E5F7F4F87E00E945B0067
:1000B0008A818BBBFFCFFF920F931F93CF93DF9368
:1000C0008B01F42EC4980E945B01FF2051F0E801DF
:1000D0000F0D111D8FEF0E945B018993C017D1078F
:1000E000C9F7C49ADF91CF911F910F91FF900895A6
:1000F000FF920F931F93CF93DF938B01F42EC4983D
:1001000080620E945B01FF2049F0E8010F0D111D84
:1001100089910E945B01C017D107D1F7C49ADF9182
:10012000CF911F910F91FF900895CF93DF931F926E
:10013000CDB7DEB788E0898364E083E00E944401A4
:10014000C39841E0BE016F5F7F4F80E00E9478005E
:100150000F90DF91CF910895CF93DF931F92CDB78A
:10016000DEB7198241E0BE016F5F7F4F80E00E94E1
:100170005B0089818260898341E0BE016F5F7F4FB0
:1001800080E00E94780083EF91E00197F1F700C0D2
:1001900000000F90DF91CF910895CF93DF931F92CE
:1001A000CDB7DEB7198241E0BE016F5F7F4F80E0BF
:1001B0000E945B0089818E7F898341E0BE016F5F71
:1001C0007F4F80E00E947800C3988DE28A95F1F716
:1001D0000F90DF91CF910895FF920F931F93CF93CC
:1001E000DF938C01F62EC49880EA0E945B01FF2009
:1001F00049F0E8010F0D111D89910E945B01C017A4
:10020000D107D1F7C49ADF91CF911F910F91FF9041
:100210000895CF93DF931F92CDB7DEB71982C39AAB
:1002200085E08A95F1F741E0BE016F5F7F4F87E07F
:100230000E945B00898185FD0AC041E0BE016F5FBD
:100240007F4F87E00E945B00898185FFF6CF41E008
:10025000BE016F5F7F4F87E00E947800C3980F90C8
:10026000DF91CF910895CF93DF931F92CDB7DEB783
:10027000698341E0BE016F5F7F4F8F5E0E9478000F
:100280000F90DF91CF91089521E030E0A90102C0E5
:10029000440F551F6A95E2F7942F906A02C0220F0F
:1002A000331F8A95E2F7292B27BB88B3482B48BB1D
:1002B00083E58DB908958FB9779BFECF8FB10895EF
:0402C000F894FFCFE0
:00000001FF
