S00F00004156525F4E52462E73726563E7
S11300000C942A000C9434000C9434000C943400A6
S11300100C9434000C9434000C9434000C9434008C
S11300200C9434000C9434000C9434000C9434007C
S11300300C9434000C9434000C9434000C9434006C
S11300400C9434000C9434000C9434000C9434005C
S11300500C94340011241FBECFE5D4E0DEBFCDBF25
S11300600E9436000C9462000C9400008FEF8ABB4F
S113007064E083E00E944600C49880E00E945D0032
S11300808FEF0E945D00C49A8BBBFFCF21E030E06C
S1130090A90102C0440F551F6A95E2F7942F906A94
S11300A002C0220F331F8A95E2F7292B27BB88B39E
S11300B0482B48BB83E58DB908958FB9779BFECF54
S10B00C08FB10895F894FFCFFD
S9030000FC
